:1004660050617373776F72643A00436F756E743AB6
:100476000059455300204E4F0066657700436C7265
:0D0486000053797374656D2045786974002A
:0D0577000610010203040506010E00C180FC
:10018C001205357BFF7A0479667D017F0112049399
:10019C001200038F0FE50FC3940A5045E50F604121
:1001AC00E50EC39406503A7408250EF8A60FE50E1A
:1001BC0004FD7408250EF8E6FB7A00751A017F021F
:1001CC001204D4050E7BFF7A0479707D0A7F02122B
:1001DC000493E50EFB7A00751A017D107F02120460
:1001EC00D4E50F640B703BE50E640670261204F127
:1001FC0030000B1205497BFF7A04797780091205D0
:10020C00497BFF7A04797B7D0E7F011204931205E2
:10021C0059800F7BFF7A04797F7D0E7F0112049346
:10022C00C200E50FB40A1A7BFF7A0479837D0E7F36
:10023C00011204937FF47E01120521120559120557
:10024C0049E50F640C600302019C1205357BFF7AB3
:0C025C000479877D017F0112049380FE6D
:0E0559007F067808E4F608DFFCE4F50FF50EE7
:010567002271
:1004F100D200E4FF74102FF8E6FE74082FF8E66EC0
:090501006003C200220FBF06EBEB
:01050A0022CE
:100549001205357BFF7A0479667D017F01020493E8
:10052100EF4E600F7D027CC7DCFEDDFCEF1F70F03B
:030531001E80ED3C
:0105340022A4
:06056800C2A58F80D2A79E
:08056E007F027EEFDEFEDFFCE0
:010576002262
:0A058500C2A6120568C2A702056EA7
:1004B600CFCDCFCECCCE1202A77C007D0A1202A7EA
:0404C600ED2430FFF2
:0A04CA00D2A6120568C2A702056E53
:10050B00AE07BE0104ED148006BE0209ED243F4484
:06051B0080FF120585229D
:100535007F381205857F0C1205857F061205857F9C
:040545000102058525
:0A058F00AC0312050BAF040204CA0E
:060493008B168A17891880
:1004990012050BE4FDAB16AA17A9188D8275830006
:0C04A900120268FF60061204CA0D80E910
:0104B5002224
:0C0433007F0AEA24FFFDE434FFFC7E0099
:08043F008E1B8F1C8C1D8D1E0D
:100447007F017E00E4FBEBC3951EE51D6480F87415
:0E0457008098500AAC1BAD1C1202950B80E879
:010465002274
:0404D4008A188B19DE
:1004D80012050BAA1AEAD39400400D120433AC1883
:0804E800AD191204B61A80EDF3
:0104F00022E9
:1003880012050BC3EA64809480400B7F2B1204CAC9
:100398008A268B27800E7F2D1204CAC3E49BF5277B
:1003A800E49AF526AA25EAD39400400D120433AC4A
:0903B80026AD271204B61A80EDEF
:0103C1002219
:0403C2008A2A8B2BCD
:1003C60012050BAA2CEAD3940040297F101204359B
:1003D600AC2AAD2BCFCDCFCECCCE1202A7EF540F89
:1003E600FEC3940AEE5004243080022437FF120420
:0403F600CA1A80D1CE
:0103FA0022E0
:0403FB008A2F8B308A
:1003FF0012050BAA31EAD394004028EA24FFFDE44A
:10040F0034FFFC7F027E0012043FAC2FAD30CFCD06
:10041F00CFCECCCE1202A7EF54012430FF1204CA64
:03042F001A80D25E
:0104320022A7
:10000300E4F5167590FFC2932097137F14FE120533
:10001300213097FD7F147E0012052175160120966D
:10002300147F147E001205213096FD7F147E00128A
:1000330005217516052095147F147E0012052130C5
:1000430095FD7F147E001205217516092094147FF7
:10005300147E001205213094FD7F147E00120521C9
:1000630075160D7590FFC2922097147F147E0012AF
:1000730005213097FD7F147E00120521751602209D
:1000830096147F147E001205213096FD7F147E00A6
:100093001205217516062095147F147E0012052182
:1000A3003095FD7F147E0012052175160A209414E5
:1000B3007F147E001205213094FD7F147E0012050B
:1000C3002175160E7590FFC2912097147F147E0040
:1000D3001205213097FD7F147E001205217516034A
:1000E3002096147F147E001205213096FD7F147E26
:1000F300001205217516072095147F147E00120542
:10010300213095FD7F147E0012052175160B209476
:10011300147F147E001205213094FD7F147E00129B
:10012300052175160F7590FFC2902097147F147EDA
:10013300001205213097FD7F147E001205217516EC
:10014300042096147F147E001205213096FD7F143F
:100153007E001205217516082095147F147E001267
:1001630005213095FD7F147E0012052175160C20A4
:1001730094147F147E001205213094FD7F147E00B9
:08018300120521751610AF16DC
:01018B002251
:030000000202FCFD
:0C02FC00787FE4F6D8FD758131020343E1
:10026800BB010CE58229F582E5833AF583E022504B
:1002780006E92582F8E622BBFE06E92582F8E22295
:0D028800E58229F582E5833AF583E49322AF
:10029500EF8DF0A4A8F0CF8CF0A428CE8DF0A42E7D
:0202A500FE2237
:1002A700BC000BBE0029EF8DF084FFADF022E4CC3B
:1002B700F875F008EF2FFFEE33FEEC33FCEE9DEC04
:1002C700984005FCEE9DFE0FD5F0E9E4CEFD22ED4A
:1002D700F8F5F0EE8420D21CFEADF075F008EF2F94
:1002E700FFED33FD4007985006D5F0F222C398FD85
:0502F7000FD5F0EA2222
:1003080002018CE493A3F8E493A34003F68001F27E
:1003180008DFF48029E493A3F85407240CC8C333F6
:10032800C4540F4420C8834004F456800146F6DFC5
:10033800E4800B0102040810204080900577E47ED9
:10034800019360BCA3FF543F30E509541FFEE493BA
:10035800A360010ECF54C025E060A840B8E493A381
:10036800FAE493A3F8E493A3C8C582C8CAC583CAAC
:10037800F0A3C8C582C8CAC583CADFE9DEE780BE64
:010584000076
:00000001FF
